:100000000C9463000C948B000C948B000C948B006C
:100010000C948B000C948B000C948B000C948B0034
:100020000C948B000C948B000C948B000C948B0024
:100030000C948B000C948B000C948B000C948B0014
:100040000C9426110C948B000C948E0F0C941110B0
:100050000C948B000C948B000C948B000C948B00F4
:100060000C94150C0C948B00000000002400270059
:100070002A0000000000250028002B0000000000DE
:1000800023002600290004040404040404040202DA
:100090000202020203030303030301020408102007
:1000A0004080010204081020010204081020000012
:1000B0000007000201000003040600000000000029
:1000C0000000D60DC40F11241FBECFEFD8E0DEBF55
:1000D000CDBF12E0A0E0B1E0EEE1F9E202C0059090
:1000E0000D92A831B107D9F713E0A8E1B2E001C041
:1000F0001D92AA3AB107E1F710E0C6ECD0E004C0C7
:100100002297FE010E945214C23CD107C9F70E94F7
:1001100011110C948D140C940000FC018827992770
:10012000E89421912032E9F3293010F02E30C8F301
:100130002B3241F02D3239F4689404C00E94F00053
:10014000820F911D219120532A30C0F31EF4909507
:1001500081959F4F08951F93FC0199278827BC0123
:10016000E89411911032E9F3193010F01E30C8F301
:100170001B3251F01D3249F4689406C00E94DB0026
:10018000610F711D811D911D119110531A30B0F333
:100190003EF490958095709561957F4F8F4F9F4F5E
:1001A0001F910895FB01DC0102C001900D924150A6
:1001B0005040D8F70895592F482F372F262F660F14
:1001C000771F881F991F660F771F881F991F620F5F
:1001D000731F841F951F660F771F881F991F08952F
:1001E0007AE0979F902D879F802D910D112408957F
:1001F000AEE0B0E0EEEFF0E00C9464140D891E89DF
:1002000086E08C831A8309838FEF9FE79E838D831B
:100210009E01275E3F4FCE0101966F89788DA9011F
:100220000E941C012F813885020F131FF8011082D4
:100230002E96E4E00C948014ABE0B0E0E2E2F1E052
:100240000C9456143C012B015A01FC0117821682B2
:10025000838181FD03C06FEF7FEFC6C19AE0892ED5
:100260001E010894211C311CF3012381F20123FD9E
:10027000859123FF81912F01882309F4B2C1853232
:1002800039F423FD859123FF81912F01853229F4D3
:1002900090E0B3010E940F03E7CF982FFF24EE24D4
:1002A0009924FFE1FF15D0F09B3269F09C3228F4CD
:1002B000903259F0933291F40EC09D3249F0903350
:1002C00069F441E024C052E0F52A84E0F82A28C00D
:1002D00098E0F92A25C0E0E1FE2A22C0F7FC29C0F7
:1002E000892F80538A3070F4F6FE05C0989C902CBC
:1002F0001124980E15C0E89CE02C1124E80EF0E2C1
:10030000FF2A0EC09E3229F4F6FC6BC140E4F42AA9
:1003100007C09C3619F450E8F52A02C0983649F413
:10032000F20123FD959123FF91912F01992309F06B
:10033000B8CF892F8554833018F08052833038F439
:1003400044E050E0A40EB51E5FE359830FC093361E
:1003500031F0933779F0933509F056C020C0F5019C
:100360008081898342E050E0A40EB51E610101E066
:1003700010E012C0F501C080D180F6FC03C06FEF21
:100380007FEF02C0692D70E042E050E0A40EB51E80
:10039000C6010E9404038C015FE7F52214C0F50139
:1003A000C080D180F6FC03C06FEF7FEF02C0692DE3
:1003B00070E042E050E0A40EB51EC6010E94F902B2
:1003C0008C0150E8F52AF3FE07C01AC080E290E0E5
:1003D000B3010E940F03EA948E2D90E008171907CD
:1003E000A8F30EC0F601F7FC8591F7FE81916F012D
:1003F00090E0B3010E940F03E110EA940150104015
:100400000115110579F7EAC0943611F0993669F5AE
:10041000F7FE08C0F501208131814281538184E0DB
:1004200090E00AC0F501808191819C01442737FD4D
:100430004095542F82E090E0A80EB91E9FE6F92265
:1004400057FF09C050954095309521953F4F4F4F2C
:100450005F4FE0E8FE2ACA01B901A1012AE030E0BD
:100460000E943B03D82ED21840C0953729F41F2D87
:100470001F7E2AE030E01DC01F2D197F9F3661F0DE
:10048000903720F4983509F0ACC00FC0903739F0A0
:10049000983709F0A6C004C028E030E00AC0106117
:1004A00014FD146020E130E004C014FD166020E16A
:1004B00032E017FF08C0F50160817181828193816C
:1004C00044E050E008C0F50180819181BC0180E0EA
:1004D00090E042E050E0A40EB51EA1010E943B0353
:1004E000D82ED2188FE7F82EF122F6FE0BC05EEF61
:1004F000F522D91438F4F4FE07C0F2FC05C08FEEE3
:10050000F82202C01D2D01C0192DF4FE0DC0FE0100
:10051000ED0DF11D8081803319F499EEF92208C0A8
:100520001F5FF2FE05C003C08F2D867809F01F5FA4
:100530000F2DF3FC14C0F0FE0FC01E1510F09D2C03
:100540000BC09D2C9E0C911A1E2D06C080E290E0DF
:10055000B3010E940F031F5F1E15C0F304C01E15D8
:1005600010F4E11A01C0EE2404FF0FC080E390E014
:10057000B3010E940F0302FF1DC001FD03C088E705
:1005800090E00EC088E590E00BC0802F867891F057
:1005900001FF02C08BE201C080E2F7FC8DE290E037
:1005A000B3010E940F0306C080E390E0B3010E94F4
:1005B0000F039A94D914C0F3DA94F101ED0DF11DF3
:1005C000808190E0B3010E940F03DD20A9F706C0EF
:1005D00080E290E0B3010E940F03EA94EE20C1F79D
:1005E00043CEF30166817781CB012B96E2E10C9437
:1005F0007214FC010590615070400110D8F780958D
:1006000090958E0F9F1F0895FC01615070400190DE
:100610000110D8F7809590958E0F9F1F08950F9326
:100620001F93CF93DF938C01EB018B8181FF1BC064
:1006300082FF0DC02E813F818C819D812817390753
:1006400064F4E881F9810193F983E88306C0E885C1
:10065000F985802F0995892B31F48E819F81019630
:100660009F838E8302C00FEF1FEFC801DF91CF91F0
:100670001F910F910895FA01AA27283051F12031D6
:1006800081F1E8946F936E7F6E5F7F4F8F4F9F4F26
:10069000AF4FB1E03ED0B4E03CD0670F781F891F68
:1006A0009A1FA11D680F791F8A1F911DA11D6A0F36
:1006B000711D811D911DA11D20D009F468943F91E9
:1006C0002AE0269F11243019305D3193DEF6CF01E8
:1006D0000895462F4770405D4193B3E00FD0C9F7AE
:1006E000F6CF462F4F70405D4A3318F0495D31FD1B
:1006F0004052419302D0A9F7EACFB4E0A69597956E
:10070000879577956795BA95C9F700976105710543
:1007100008959B01AC010A2E06945795479537958D
:100720002795BA95C9F7620F731F841F951FA01DE7
:1007300008950F931F938C01FC011086828160E065
:100740000E945E12F801848160E00E945E121F9197
:100750000F910895FC018FED91E091838083CF018B
:100760000E9499030895CF93DF93EC018E819F81BE
:10077000892B39F48A8161E00E945E128C8160E0ED
:1007800006C08A8160E00E945E128C8161E00E9456
:100790005E1281E08887DF91CF9108950F931F93B8
:1007A0008C018FED91E0F80191838083C8010E9454
:1007B0009903C8010E9420111F910F910895FF9283
:1007C0000F931F938C01862FF42EEFEDF1E0D801EB
:1007D0001196FC93EE9312966C93129713967C935A
:1007E000139714964C93149715965C931597179638
:1007F0003C932E93169718961C9261E00E941F124C
:100800008F2D61E00E941F12C8010E9499031F9161
:100810000F91FF900895CF92DF92EF92FF920F9386
:100820001F93DF93CF93CDB7DEB764970FB6F894DD
:10083000DEBF0FBECDBF9C016B018A017E01089413
:10084000E11CF11C84E1F70111928A95E9F7C701D7
:10085000B9010E94D200F60180819181800F911F21
:1008600091838083C7010E94AB0064960FB6F89411
:10087000DEBF0FBECDBFCF91DF911F910F91FF90D3
:10088000EF90DF90CF900895CF92DF92EF92FF929A
:100890000F931F93DF93CF93CDB7DEB764970FB657
:1008A000F894DEBF0FBECDBF9C016B018A017E01B3
:1008B0000894E11CF11C84E1F70111928A95E9F793
:1008C000C701B9010E94D200F60180819181800F99
:1008D000911F91838083C7010E948D0064960FB69B
:1008E000F894DEBF0FBECDBFCF91DF911F910F9166
:1008F000FF90EF90DF90CF9008952F923F924F920C
:100900005F926F927F928F929F92AF92BF92CF929F
:10091000DF92EF92FF920F931F93DF93CF93CDB7A8
:10092000DEB728970FB6F894DEBF0FBECDBF7C01AF
:1009300081E090E09A838983C70101968E010F5F61
:100940001F4FB80142E050E00E94440498878F8313
:1009500089819A818E0D9F1DB80142E050E00E946E
:1009600044049E838D8389819A818E0D9F1DB801D9
:1009700044E050E00E9444049C838B8389819A81E7
:100980008E0D9F1DB80142E050E00E9444041C01FE
:1009900089819A818E0D9F1DB80142E050E00E942E
:1009A00044042C0189819A818E0D9F1DB8014AE073
:1009B00050E00E940B045B016C0189819A818E0DCD
:1009C0009F1DB80142E050E00E9444048C01A091B8
:1009D0001C02B0911D02109741F0ED91FC9111970E
:1009E0000280F381E02DCD01099586E190E00E941F
:1009F0002311782E692E000F111F0A5E1D4FF8017A
:100A000080809180872DB101A2012F8138850D81D1
:100A10001E81EB80FC800E94AA0770921C026092EB
:100A20001D0228960FB6F894DEBF0FBECDBFCF9142
:100A3000DF911F910F91FF90EF90DF90CF90BF90CB
:100A4000AF909F908F907F906F905F904F903F906E
:100A50002F9008954F925F926F927F928F929F9204
:100A6000AF92BF92CF92DF92EF92FF920F931F93BC
:100A7000DF93CF9300D0CDB7DEB77C0181E090E06B
:100A80009A83898380E093E060E071E00E949D108A
:100A900089819A818E0D9F1D8E010F5F1F4FB801B6
:100AA00042E050E00E9444042C0189819A818E0D1D
:100AB0009F1DB80142E050E00E9444043C0189813E
:100AC0009A818E0D9F1DB8014AE050E00E940B04F0
:100AD0004B015C0189819A818E0D9F1DB80142E016
:100AE00050E00E9444048C01A0911C02B0911D02B0
:100AF000109741F0ED91FC9111970280F381E02D68
:100B0000CD01099586E190E00E942311D82EC92ECF
:100B1000000F111F0A5E1D4FF801E080F1808D2D3E
:100B20009C2DB201A301950184010E948607D092F9
:100B30001C02C0921D020F900F90CF91DF911F9168
:100B40000F91FF90EF90DF90CF90BF90AF909F906C
:100B50008F907F906F905F904F9008954F925F922B
:100B60006F927F928F929F92AF92BF92CF92DF92BD
:100B7000EF92FF920F931F93DF93CF9300D0CDB7E7
:100B8000DEB75C0181E090E09A838983C50101961C
:100B90006E010894C11CD11CB60142E050E00E94D5
:100BA00044042C0189819A818A0D9B1DB60142E083
:100BB00050E00E9444048C0189819A818A0D9B1D1A
:100BC000B60144E050E00E9444047C0189819A818E
:100BD0008A0D9B1DB60142E050E00E9444043C0196
:100BE00089819A818A0D9B1DB60142E050E00E94E6
:100BF00044044C0189819A818A0D9B1DB60142E013
:100C000050E00E944404AC01C301B40192010E946F
:100C1000390B0F900F90CF91DF911F910F91FF90A3
:100C2000EF90DF90CF90BF90AF909F908F907F908C
:100C30006F905F904F900895FC018081823441F065
:100C4000833451F0813461F4CF010E94AE050895E0
:100C5000CF010E947D040895CF010E942A050895C6
:100C600080E093E066E071E00E949D1008950F938C
:100C70001F93DF93CF93CDB7DEB7C456D0400FB6E6
:100C8000F894DEBF0FBECDBF80E093E00E94E20E7D
:100C9000892BA1F080E093E06AE08E010F5F1F4F87
:100CA000A80124E630E00E94DC1080E093E06CE1D3
:100CB00071E00E949D10C8010E941C06CC59DF4FB4
:100CC0000FB6F894DEBF0FBECDBFCF91DF911F915D
:100CD0000F9108956F927F928F929F92AF92BF92E1
:100CE000CF92DF92EF92FF920F931F93DF93CF93F8
:100CF000CDB7DEB7C456D0400FB6F894DEBF0FBEF6
:100D0000CDBF0E94F20B3C010E94EA0B4C010E94F5
:100D1000E20B5C010E94DA0B6C010E94D20B7C0199
:100D20000E94CD0B2DB73EB7205130400FB6F8943E
:100D30003EBF0FBE2DBFEDB7FEB731968E010F5FE0
:100D40001F4FADB7BEB712961C930E93119726E2B4
:100D500031E0338322837582648297828682B186F2
:100D6000A086D386C286F586E486978786870E940A
:100D7000F800EDB7FEB770960FB6F894FEBF0FBE41
:100D8000EDBF80E093E0B8010E949D102CE1E22EBF
:100D900022E0F22E20E0C02E012FD7018D919C91F0
:100DA000009759F06C2D702F0E94FF0780E093E0B0
:100DB0006C2D702F0E949D1021E0E2E0F0E0EE0E1D
:100DC000FF1EF6E2EF16F2E0FF0639F7222331F4B8
:100DD00080E093E06DE471E00E949D10CC59DF4FFC
:100DE0000FB6F894DEBF0FBECDBFCF91DF911F913C
:100DF0000F91FF90EF90DF90CF90BF90AF909F90BA
:100E00008F907F906F900895CF93DF93CCE1D2E0E5
:100E100088819981009711F00E94E208229682E071
:100E2000C632D807A9F70E946A060E94370660ED0D
:100E300077E080E090E00E94B711DF91CF910895B4
:100E4000CF92DF92EF92FF920F931F93F0E0CF2E9D
:100E5000F3E0DF2EC60140E056E960E070E026E0F6
:100E60000E947E0E89E090E00E942311182F092F26
:100E70006EE070E04FE050E020E030E00E94DF03E1
:100E8000109318020093190289E090E00E94231148
:100E9000182F092F60E170E041E150E020E030E0E0
:100EA0000E94DF0310931A0200931B028CE090E073
:100EB0006DE270E040E050E024E130E002E010E05C
:100EC000E0EEEE2EE7E0FE2E0E94390B10921D029E
:100ED00010921C0210921F0210921E021092210208
:100EE00010922002109223021092220210922502E8
:100EF00010922402C60163E671E00E949D101F91CA
:100F00000F91FF90EF90DF90CF900895EF92FF92B6
:100F10000F931F93FC0187EE91E09183808373838D
:100F20006283558344830487158726873787178212
:100F300016821186108613861286158A148AF38A01
:100F4000E28A84E690E0918B808B1F910F91FF9055
:100F5000EF9008958F929F92AF92BF92CF92DF92BF
:100F6000EF92FF920F931F93DF93CF93CDB7DEB72E
:100F7000FC0187EE91E091838083738362835583C4
:100F80004483A486B586C686D78637832683118791
:100F90000087F386E28681E090E0958B848B938ACC
:100FA000828A84E690E0918B808BCF91DF911F91B4
:100FB0000F91FF90EF90DF90CF90BF90AF909F90F8
:100FC0008F900895FC0187EE91E0918380830895CE
:100FD0000F931F938C01FC01828993890E94B303B4
:100FE000F80164857585868597850E94B711F8019B
:100FF000828993890E9499031F910F910895CF933D
:10100000DF93DC0154968D919C915597009721F0C8
:10101000019709F073C02FC08DB79EB70C970FB61C
:10102000F8949EBF0FBE8DBFEDB7FEB73196CDB71A
:10103000DEB77A8369838CE691E09383828312968C
:101040008D919C9113979583848314968D919C9197
:101050001597978386831C968D919D910D90BC91D9
:10106000A02D80879187A287B3870E94F8008DB753
:101070009EB70C963EC0CDB7DEB762970FB6F89418
:10108000DEBF0FBECDBFEDB7FEB731967A83698361
:1010900088E991E09383828312968D919C911397B6
:1010A0009583848314968D919C911597978386835D
:1010B00016968D919C9117979187808718968D91A0
:1010C0009C911997938782871A968D919C911B9773
:1010D000958784871C968D919D910D90BC91A02D34
:1010E00086879787A08BB18B0E94F8008DB79EB73B
:1010F00042960FB6F8949EBF0FBE8DBFDF91CF9181
:1011000008950F931F93CF93DF93EC010A811B8106
:101110000E94F20B08171907A1F40C811D810E948F
:10112000EA0B0817190769F4088919890E94DA0B74
:101130000817190731F00E94DA0B998B888B81E030
:1011400001C080E0DF91CF911F910F9108950F931F
:101150001F93CF93DF93EC010A811B810E94F20B56
:101160000817190749F50C811D810E94EA0B081721
:10117000190711F50E811F810E94DA0B0817190754
:10118000D9F4088519850E94D20B08171907A1F414
:101190000A851B850E94CD0B0817190769F4088979
:1011A00019890E94DA0B0817190731F00E94DA0B2F
:1011B000998B888B81E001C080E0DF91CF911F91F6
:1011C0000F910895CF93DF93EC018C899D8900974F
:1011D00019F0019769F404C0CE010E94810803C090
:1011E000CE010E94A708882319F0CE010E94E807CB
:1011F000DF91CF910895FC0187EE91E09183808388
:10120000CF010E94201108958F929F92AF92BF92BA
:10121000CF92DF92EF92FF920F931F93CF93DF93C2
:101220007B018C01EA012CE330E040E050E00E94B9
:101230001A146883C801B7012CE330E040E050E0A5
:101240000E941A14122F032FF42EE52E622F732FF3
:10125000842F952F2CE330E040E050E00E941A14D8
:101260006983612F702F8F2D9E2D2CE330E040E09D
:1012700050E00E941A14122F032FF42EE52E622F35
:10128000732F842F952F28E130E040E050E00E943A
:101290001A146A83612F702F8F2D9E2D28E130E064
:1012A00040E050E00E941A1479018A01C801B70198
:1012B0006C5F7F4F8F4F9F4F27E030E040E050E062
:1012C0000E941A146F5F6B8320E0AA24BB2465017F
:1012D00001C02F5F822E9924F401EE54F84FCF0104
:1012E00083709070892B99F4CF0164E670E00E94BE
:1012F0000714892B39F4CF0160E971E00E940714CB
:10130000892B29F48EE691E0A0E0B0E004C08DE6E0
:1013100091E0A0E0B0E0A80EB91ECA1EDB1EC50118
:10132000A0E0B0E0E816F9060A071B0790F62E8346
:10133000F401EE54F84F83E0882E912C8E229F22E8
:101340008114910499F4CF0164E670E00E940714BF
:10135000892B39F4CF0160E971E00E940714892BD1
:1013600029F48EE691E0A0E0B0E004C08DE691E0C3
:10137000A0E0B0E0A81AB90ACA0ADB0A98018701FE
:101380000A191B092C093D09CF0164E670E00E948F
:1013900007147C01CF0160E971E00E940714AC01E1
:1013A000EBEEF1E060E0613051F48114910449F416
:1013B000E114F10441F44115510529F002C0808186
:1013C00003C08CE101C08DE190E0A0E0B0E008171F
:1013D00019072A073B0740F0081B190B2A0B3B0B88
:1013E0006F5F31966C30F9F66F5F6D83802F8F5F82
:1013F0008C83DF91CF911F910F91FF90EF90DF9041
:10140000CF90BF90AF909F908F900895EF92FF92F2
:101410000F931F937B018C0180913D0290913E02BE
:10142000A0913F02B0914002E816F9060A071B0797
:1014300071F0C801B70142E352E00E940409E09252
:101440003D02F0923E0200933F02109340021F9132
:101450000F91FF90EF9008950E94060A20913802A4
:1014600030E02E54384FC90108954F925F926F9229
:101470007F928F929F92AF92BF92CF92DF92EF9224
:10148000FF920F931F93CF93DF934C01DC011696CD
:101490001C91612F70E080E090E020E833E341EEA2
:1014A00051E00E94E8135B016C0122EB37E0E12F71
:1014B000F0E0EE54F84F1DC0C90183709070892B85
:1014C000B1F4C90164E670E00E940714892B39F475
:1014D000C90160E971E00E940714892B41F480E89A
:1014E00091E5A1E0B0E0A80EB91ECA1EDB1E2F5F79
:1014F0003F4F2E173F0701F7D40115968C91482EC8
:101500005524C90164E670E00E9407147C01C901FA
:1015100060E971E00E9407148C01C1E0D0E093E023
:10152000692E712C6222732227C0C230D10591F43A
:101530006114710479F4E114F10419F40115110531
:1015400049F480E89BE3A6E2B0E0A80EB91ECA1EEB
:10155000DB1E11C0FE01E651FE4F608170E080E0AD
:1015600090E020E831E541E050E00E94E813A60E4B
:10157000B71EC81ED91E2196C415D505B4F2D401D4
:1015800012966C9170E080E090E020E13EE040E057
:1015900050E00E94E8137B018C01F401618170E04E
:1015A00080E090E02CE330E040E050E00E94E8135F
:1015B000E60EF71E081F191FD4018C91E80EF11CCE
:1015C000011D111D14966C9170E0615070408827C8
:1015D00077FD8095982F20E831E541E050E00E94AA
:1015E000E813E60EF71E081F191FEA0CFB1C0C1D62
:1015F0001D1DB701C801DF91CF911F910F91FF9081
:10160000EF90DF90CF90BF90AF909F908F907F90A2
:101610006F905F904F900895609328027093290215
:1016200080932A0290932B022091D1013091D20114
:101630004091D3015091D401260F371F481F591FE5
:1016400020932C0230932D0240932E0250932F02B0
:1016500082E090E090933102809330020E946E11FC
:101660006093390270933A0280933B0290933C025C
:101670000895EF92FF920F93F701E436F1051CF005
:10168000E25BF74001C07E96E09338020093370298
:1016900020933602809334026093330240933202E7
:1016A00082E392E00E94350A0E940C0B0F91FF909A
:1016B000EF900895EF92FF920F931F931CC02F5F3E
:1016C0003F4F4F4F5F4F20932802309329024093A2
:1016D0002A0250932B0288EE93E0A0E0B0E0E80EDF
:1016E000F91E0A1F1B1FE0923902F0923A02009382
:1016F0003B0210933C020E946E11E0903902F09080
:101700003A0200913B0210913C026E197F09800B56
:10171000910B209128023091290240912A02509188
:101720002B02685E73408040904048F680912C0206
:1017300090912D02A0912E02B0912F022817390707
:101740004A075B07E8F0E0912602F0912702309704
:10175000B9F00995611571058105910519F00E948F
:101760000C0B0EC020E030E08091300290913102ED
:10177000892B11F021E030E03093310220933002C8
:10178000609128027091290280912A0290912B0287
:101790001F910F91FF90EF9008950E945A0B0E94A5
:1017A0002C0A08950E945A0B0E94060A8091370263
:1017B00090E008950E945A0B0E94060A809136021A
:1017C00090E008950E945A0B0E94060A809132020E
:1017D00090E008950E945A0B0E94060A80913302FD
:1017E00090E008950E945A0B0E94060A80913402EC
:1017F00090E00895482F613210F081E008958091C3
:101800004102843011F082E0089560938C02ABE6CF
:10181000B2E0842F9C01F90102C081918D938E2F3B
:10182000841B8617D0F380E008951F920F920FB6A5
:101830000F9211242F933F934F935F936F937F9356
:101840008F939F93AF93BF93EF93FF938091B900D2
:1018500090E0887F90708036910509F4F2C081365F
:101860009105CCF58832910509F47BC08932910548
:10187000B4F48031910509F46FC0813191053CF4D5
:10188000009709F447C1089709F04FC165C0883136
:10189000910509F466C0809709F047C182C0803481
:1018A000910509F4A4C08134910544F48033910575
:1018B00009F482C0C89709F038C189C08035910504
:1018C00009F489C08835910509F496C088349105DA
:1018D00009F02BC1AEC08839910509F413C18939CB
:1018E0009105ECF48837910509F4ABC0893791056F
:1018F0004CF48836910509F4A4C08037910509F0AD
:1019000014C19FC08838910509F4FCC08039910545
:1019100009F49DC08038910509F007C198C0803B4B
:10192000910509F4C6C0813B91054CF4803A9105BC
:1019300009F49FC0883A910509F0F7C0BAC0803C0D
:10194000910509F4E3C0883C910509F4DFC0883BA8
:10195000910509F0EAC0C2C0809142028093BB00A9
:10196000CFC09091690280916A02981768F49091B3
:101970006902E92FF0E0E75BFD4F80818093BB00B7
:101980009F5F90936902BCC080914302882309F451
:101990004BC085ED8093BC008091BC0084FDFCCFE2
:1019A000C2C080E28093AE0285ED8093BC0080913E
:1019B000BC0084FDFCCFB7C080E38093AE0285ED10
:1019C0008093BC008091BC0084FDFCCFACC088E358
:1019D0008093AE029BC0809169029091BB00E82F7A
:1019E000F0E0E75BFD4F90838F5F809369029091F9
:1019F000690280916A0282C0809169029091BB0065
:101A0000E82FF0E0E75BFD4F90838F5F80936902E2
:101A100080914302882341F085ED8093BC00809142
:101A2000BC0084FDFCCF7FC081E08093440284EA47
:101A30006EC085ED8093BC008091BC0084FDFCCF1E
:101A400072C083E0809341021092AD0259C0809130
:101A5000AD02803208F056C08091AD029091BB007B
:101A6000E82FF0E0E357FD4F90838F5F8093AD0246
:101A700047C08091AD02803230F4E091AD02F0E0D9
:101A8000E357FD4F108285ED8093BC008091BC0030
:101A900084FDFCCF109241026091AD02E0914702BB
:101AA000F09148028DE892E070E009951092AD0245
:101AB0002DC084E08093410210928B0210928C0220
:101AC000E0914502F0914602099580918C028823AD
:101AD00029F481E080938C0210926B0290918B022A
:101AE000E92FF0E0E559FD4F80818093BB009F5FB7
:101AF00090938B0290918B0280918C02981710F436
:101B000085EC01C085E88093BC000FC085EC809314
:101B1000BC0009C01092AE0285ED8093BC0080919C
:101B2000BC0084FDFCCF10924102FF91EF91BF9168
:101B3000AF919F918F917F916F915F914F913F9165
:101B40002F910F900FBE0F901F9018952091D002EB
:101B500030E08091CF02281B3109C90108954091DE
:101B6000CF028091D002481718F02FEF3FEF0AC044
:101B7000E42FF0E0E155FD4F8081282F30E04F5FEA
:101B80004093CF02C9010895E091CF028091D00225
:101B9000E81718F0EFEFFFEF06C0F0E0E155FD4F5A
:101BA0008081E82FF0E0CF01089508951092F702A8
:101BB0001092F60288EE93E0A0E0B0E08093F80285
:101BC0009093F902A093FA02B093FB028BEF91E09D
:101BD0009093F5028093F4020895CF92DF92EF92F2
:101BE000FF920F931F93CF93DF937C016B018A01C8
:101BF0008091F3028823A1F0C0E0D0E00DC0D701AE
:101C0000ED91FC91D601AC0FBD1F0190F081E02D4C
:101C1000C7016C9109952196C017D10780F304C0C4
:101C2000CB01642F0E94FA0BC801DF91CF911F9165
:101C30000F91FF90EF90DF90CF900895DF93CF93B7
:101C40000F92CDB7DEB7FC0169838091F302882340
:101C5000C9F08091F202803238F081E090E0938305
:101C6000828320E030E015C08091F102E82FF0E09F
:101C7000EF52FD4F998190838F5F8093F1028093A3
:101C8000F20205C0CE01019661E00E94FA0B21E04C
:101C900030E0C9010F90CF91DF910895DC015C968F
:101CA0008C915C97FD01E80FF11DE35AFF4F2081F5
:101CB0005C968C915C9790E001968F7390705C9627
:101CC0008C935C975696ED91FC9157972083509694
:101CD000ED91FC9151978081806480835B969C910B
:101CE0005B975C968C915C97981739F45296ED91BE
:101CF000FC91539780818F7D80830895DF92EF92CE
:101D0000FF920F931F93CF93DF93EC017A018B0126
:101D1000D22EE889F98982E08083403081EE58072D
:101D200080E0680780E07807A1F060E079E08DE36B
:101D300090E0A80197010E941A14215030404040C1
:101D40005040569547953795279580E120303807C4
:101D500098F0E889F989108260E874E88EE190E0F3
:101D6000A80197010E941A14215030404040504071
:101D70005695479537952795EC85FD853083EE85FB
:101D8000FF852083188EEC89FD89D082EA89FB8942
:101D9000808180618083EA89FB898081886080837B
:101DA000EA89FB89808180688083EA89FB89808158
:101DB0008F7D8083DF91CF911F910F91FF90EF90E6
:101DC000DF900895FC01218D828D30E0205C3F4F33
:101DD000281B31092F733070C9010895FC01918DC2
:101DE000828D981719F42FEF3FEF06C0828DE80F10
:101DF000F11D858D282F30E0C9010895DC01599629
:101E00009C9159975A968C915A97981719F42FEFDD
:101E10003FEF10C05A968C915A97FD01E80FF11DC3
:101E2000958D5A968C915A978F5F8F735A968C9393
:101E3000292F30E0C9010895CF93DF93EC01888DFD
:101E4000882361F419C08C9185FF0AC0E889F9895B
:101E5000808185FF05C0CE010E944E0EAA89BB89F4
:101E60008C9185FD05C0E889F989808186FD04C0D3
:101E70000FB607FEE8CFF4CFDF91CF9108950F930F
:101E80001F93CF93DF93EC01062F9B8D8C8D9817BA
:101E900091F5E889F989808185FF2DC0EE89FF8958
:101EA0006083E889F9898081806480831DC00FB6D2
:101EB00007FC08C0E889F989808185FF03C0CE014D
:101EC0000E944E0E8C8D181791F38B8DFE01E80F3A
:101ED000F11DE35AFF4F00831B8FEA89FB89808144
:101EE0008062808381E0888F81E090E0DF91CF91F4
:101EF0001F910F9108951B8D1F5F1F73E3CF87E024
:101F000090E1892B51F080E090E0892B31F00E9424
:101F10000710882311F00E94000008951F920F926D
:101F20000FB60F9211242F938F939F93EF93FF93EC
:101F3000E0911003F0911103808182FD16C0E091C1
:101F40001603F09117032081909119039F5F9F73EF
:101F500080911A03981771F0E0911903F0E0E050B6
:101F6000FD4F258F9093190305C0E0911603F09162
:101F70001703E081FF91EF919F918F912F910F9027
:101F80000FBE0F901F90189510920303109202033A
:101F900088EE93E0A0E0B0E0809304039093050303
:101FA000A0930603B09307038BE092E090930103A4
:101FB0008093000385EC90E090930D0380930C03D5
:101FC00084EC90E090930F0380930E0380EC90E0FC
:101FD000909311038093100381EC90E0909313038E
:101FE0008093120382EC90E0909315038093140386
:101FF00086EC90E0909317038093160310921903D8
:1020000010921A0310921B0310921C03089580E093
:1020100093E00E94E20E20E0892B09F021E0822F5C
:1020200008951F920F920FB60F9211242F933F9392
:102030004F935F936F937F938F939F93AF93BF93D0
:10204000EF93FF9380E093E00E944E0EFF91EF919B
:10205000BF91AF919F918F917F916F915F914F91C0
:102060003F912F910F900FBE0F901F901895CF9218
:10207000DF92EF92FF920F931F93CF93DF937C0138
:102080006B018A01C0E0D0E00FC0D6016D916D01F7
:10209000D701ED91FC910190F081E02DC7010995E8
:1020A000C80FD91F015010400115110571F7CE015D
:1020B000DF91CF911F910F91FF90EF90DF90CF9024
:1020C0000895EF92FF920F931F938C01DC01ED9125
:1020D000FC910190F081E02D6DE009957C01D80123
:1020E000ED91FC910190F081E02DC8016AE0099525
:1020F0009C012E0D3F1DC9011F910F91FF90EF9084
:102100000895CF93DF93EC016115710519F420E078
:1021100030E00FC0DB010D900020E9F71197A61BFE
:10212000B70BE881F9810280F381E02DAD010995BB
:102130009C01C901DF91CF910895EF92FF920F9317
:102140001F937C010E9481108C01C7010E946110C5
:10215000080F191FC8011F910F91FF90EF9008956C
:10216000CF93DF93EC010E946E11688779878A878D
:102170009B87E881F9810680F781E02DCE010995E2
:102180009C0197FF15C00E946E11288539854A85EC
:102190005B85621B730B840B950B2C813D814E81FB
:1021A0005F81621773078407950718F32FEF3FEFDE
:1021B000C901DF91CF910895AF92BF92CF92DF9284
:1021C000EF92FF920F931F93CF93DF935C017A01FD
:1021D00089012115310519F4C0E0D0E016C0C0E036
:1021E000D0E0C62EDD24C7FCD0940CC0C5010E94EF
:1021F000B01097FD0AC08C159D0539F0F701819349
:102200007F012196C017D10788F3CE01DF91CF91CE
:102210001F910F91FF90EF90DF90CF90BF90AF9004
:102220000895CF93DF930E947C110E942007CFE78F
:10223000DFE00E9404072097E1F30E947F0FF9CFAF
:102240000E944F1308950E94B21208951F920F9298
:102250000FB60F9211242F933F938F939F93AF93B9
:10226000BF938091A1039091A203A091A303B09189
:10227000A4033091A5030196A11DB11D232F2D5F4D
:102280002D3720F02D570196A11DB11D2093A503D8
:102290008093A1039093A203A093A303B093A403FC
:1022A00080919D0390919E03A0919F03B091A00304
:1022B0000196A11DB11D80939D0390939E03A09351
:1022C0009F03B093A003BF91AF919F918F913F91D6
:1022D0002F910F900FBE0F901F9018958FB7F89405
:1022E0002091A1033091A2034091A3035091A40334
:1022F0008FBFB901CA010895789484B5826084BD06
:1023000084B5816084BD85B5826085BD85B58160F9
:1023100085BDEEE6F0E0808181608083E1E8F0E059
:102320001082808182608083808181608083E0E888
:10233000F0E0808181608083E1EBF0E08081846067
:102340008083E0EBF0E0808181608083EAE7F0E069
:1023500080818460808380818260808380818160CD
:1023600080838081806880831092C1000895EF92FD
:10237000FF920F931F93CF93DF937B018C013FB7A5
:10238000F89480919D0390919E03A0919F03B0913A
:10239000A00326B5A89B05C02F3F19F00196A11DEB
:1023A000B11D3FBFBA2FA92F982F8827820F911DEB
:1023B000A11DB11D52E0880F991FAA1FBB1F5A957E
:1023C000D1F7EC0130C00E94E7133FB7F894809139
:1023D0009D0390919E03A0919F03B091A00326B509
:1023E000A89B05C02F3F19F00196A11DB11D3FBF4D
:1023F000BA2FA92F982F8827820F911DA11DB11DDB
:1024000032E0880F991FAA1FBB1F3A95D1F78C1B8A
:102410009D0B885E9340B8F20894E108F108010929
:102420001109C851DC4FE114F1040105110559F6F9
:10243000DF91CF911F910F91FF90EF900895CF936F
:10244000DF93482F50E0CA0186569F4FFC0134911C
:102450004A575F4FFA018491882369F190E0880F11
:10246000991FFC01E859FF4FA591B491FC01EE586A
:10247000FF4FC591D491662351F42FB7F8948C91F6
:10248000932F909589238C93888189230BC0623088
:1024900061F42FB7F8948C91932F909589238C93A6
:1024A0008881832B88832FBF06C09FB7F8948C91B7
:1024B000832B8C939FBFDF91CF910895482F50E0DD
:1024C000CA0182559F4FFC012491CA0186569F4F35
:1024D000FC0194914A575F4FFA013491332309F478
:1024E00040C0222351F1233071F0243028F42130F0
:1024F000A1F0223011F514C02630B1F02730C1F020
:102500002430D9F404C0809180008F7703C080917B
:1025100080008F7D8093800010C084B58F7702C0CB
:1025200084B58F7D84BD09C08091B0008F7703C0D2
:102530008091B0008F7D8093B000E32FF0E0EE0F2C
:10254000FF1FEE58FF4FA591B4912FB7F894662363
:1025500021F48C919095892302C08C91892B8C93C6
:102560002FBF08950F931F93CF93DF93BC01823049
:10257000910510F462E070E0E091A803F091A903E6
:10258000A0E0B0E040E050E024C080819181861757
:102590009707D0F08617970771F48281938110977F
:1025A00029F013969C938E9312972CC09093A903B5
:1025B0008093A80327C04115510519F0841795078A
:1025C00018F4EF018D01AC01DF01828193819C0140
:1025D000F9013097D1F641155105F9F0CA01861B72
:1025E000970B8430910580F48A819B810115110538
:1025F00021F0F8019383828304C09093A903809310
:10260000A803FE01329645C0FE01E80FF91F619351
:1026100071930297998388833CC08091A60390911F
:10262000A703892B41F48091D7019091D801909311
:10263000A7038093A6034091D9015091DA01411577
:10264000510541F44DB75EB78091D5019091D60107
:10265000481B590B2091A6033091A7032417350777
:10266000B0F4CA01821B930B8617970780F0AB0169
:102670004E5F5F4F8417950750F0420F531F5093E2
:10268000A7034093A603F9016193719302C0E0E0B0
:10269000F0E0CF01DF91CF911F910F910895CF937B
:1026A000DF939C01009709F48FC0EC0122971B82F5
:1026B0001A826091A8037091A9036115710581F4D4
:1026C00088819981820F931F2091A6033091A703DF
:1026D0002817390739F5D093A703C093A60374C010
:1026E000DB0140E050E0AC17BD0708F1BB83AA83D3
:1026F000FE0121913191E20FF31FAE17BF0779F46C
:102700008D919C911197280F391F2E5F3F4F398370
:10271000288312968D919C9113979B838A834115F0
:10272000510571F4D093A903C093A8034DC012962C
:102730008D919C911397AD01009711F0DC01D3CFDF
:10274000DA011396DC93CE931297FA01219131911D
:10275000E20FF31FCE17DF0769F488819981280FF4
:10276000391F2E5F3F4FFA01318320838A819B817D
:1027700093838283E0E0F0E0DB0112968D919C91DF
:102780001397009719F0BC01FD01F6CFAB014E5F26
:102790005F4FDB018D919C91840F951F2091A603C3
:1027A0003091A7032817390779F4309729F410924C
:1027B000A9031092A80302C0138212824250504013
:1027C0005093A7034093A603DF91CF9108950895F6
:1027D000629FD001739FF001829FE00DF11D649F05
:1027E000E00DF11D929FF00D839FF00D749FF00D91
:1027F000659FF00D9927729FB00DE11DF91F639F32
:10280000B00DE11DF91FBD01CF011124089597FB03
:10281000092E07260AD077FD04D02ED006D000203E
:102820001AF4709561957F4F0895F6F7909581950C
:102830009F4F0895A1E21A2EAA1BBB1BFD010DC0DC
:10284000AA1FBB1FEE1FFF1FA217B307E407F50760
:1028500020F0A21BB30BE40BF50B661F771F881F3C
:10286000991F1A9469F760957095809590959B01D2
:10287000AC01BD01CF010895AA1BBB1B51E107C0EC
:10288000AA1FBB1FA617B70710F0A61BB70B881F00
:10289000991F5A95A9F780959095BC01CD0108958F
:1028A000EE0FFF1F0590F491E02D09942F923F92B7
:1028B0004F925F926F927F928F929F92AF92BF9250
:1028C000CF92DF92EF92FF920F931F93CF93DF93FC
:1028D000CDB7DEB7CA1BDB0B0FB6F894DEBF0FBE59
:1028E000CDBF09942A88398848885F846E847D84A6
:1028F0008C849B84AA84B984C884DF80EE80FD80A8
:102900000C811B81AA81B981CE0FD11D0FB6F8941D
:0E291000DEBF0FBECDBFED010895F894FFCFDE
:10291E004461696C790046616C686120616F206466
:10292E0065636F64696669636172210052656365F0
:10293E006269646F210052656C6F67696F3A20257A
:10294E003032643A253032643A25303264202530F4
:10295E0032642F253032642F253034640053656D78
:10296E00206167656E64616D656E746F7321003AE8
:10297E00002000496E69636961646F004167656E8E
:10298E006461646F2064696172696F3A2025303228
:10299E00643A253032642054656D706F204C69673F
:1029AE0061646F3A202575004167656E6461646FDE
:1029BE0020446174613A20253032643A2530326405
:1029CE0020253032642F253032642F253034642098
:1029DE0054656D706F204C696761646F3A20257580
:1029EE00002C0100008000AA03000000000000AAD5
:1029FE0003CE0300000000E207FB081F1C1F1E1F72
:102A0E001E1F1F1E1F1E1F000000001E0EED0DA616
:102A1E000DAF0DC40DD50D000000003F0F3710E2B5
:082A2E000EFE0EEE0E1C0F005F
:00000001FF
