:100000000C9463000C948B000C948B000C948B006C
:100010000C948B000C948B000C948B000C948B0034
:100020000C948B000C948B000C948B000C948B0024
:100030000C948B000C948B000C948B000C948B0014
:100040000C941A0B0C948B000C9429090C94AC0999
:100050000C948B000C948B000C948B000C948B00F4
:100060000C94B0050C948B000000000024002700C5
:100070002A0000000000250028002B0000000000DE
:1000800023002600290004040404040404040202DA
:100090000202020203030303030301020408102007
:1000A0004080010204081020010204081020000012
:1000B0000007000201000003040600000000000029
:1000C000000071075F0911241FBECFEFD8E0DEBF2B
:1000D000CDBF11E0A0E0B1E0E8E9FCE102C005908D
:1000E0000D92AE35B107D9F712E0AEE5B1E001C02F
:1000F0001D92AE3EB107E1F710E0C6ECD0E004C0BF
:100100002297FE010E94460EC23CD107C9F70E9409
:10011000050B0C944A0E0C9400000F931F938C0156
:10012000FC011086828160E00E94520CF8018481FB
:1001300060E00E94520C1F910F910895FC0186E22D
:1001400091E091838083CF010E948D000895CF9329
:10015000DF93EC018E819F81892B39F48A8161E0E4
:100160000E94520C8C8160E006C08A8160E00E948F
:10017000520C8C8161E00E94520C81E08887DF91F3
:10018000CF9108950F931F938C0186E291E0F801BF
:1001900091838083C8010E948D00C8010E94140BC6
:1001A0001F910F910895FF920F931F938C01862F3B
:1001B000F42EE6E2F1E0D8011196FC93EE9312964C
:1001C0006C93129713967C93139714964C931497F1
:1001D00015965C93159717963C932E931697189641
:1001E0001C9261E00E94130C8F2D61E00E94130CA1
:1001F000C8010E948D001F910F91FF900895EF920A
:10020000FF920F931F930E948D05BC0104E412E03E
:10021000C8014AE050E00E94DC0A90E0E92E91E03B
:10022000F92EC801B7010E94EF0A0E948505BC01A2
:10023000C8014AE050E00E94DC0AC801B7010E94F0
:10024000EF0A0E947D05BC01C8014AE050E00E940F
:10025000DC0A82E0E82E81E0F82EC801B7010E9496
:10026000EF0A0E947505BC01C8014AE050E00E94F7
:10027000DC0AC801B7010E94EF0A0E946D05BC01AB
:10028000C8014AE050E00E94DC0AC801B7010E94A0
:10029000EF0A0E946805BC01C8014AE050E00E94D4
:1002A000DC0AC8010E94FC091F910F91FF90EF909A
:1002B0000895CF93DF9384E492E064E071E00E94BC
:1002C000F20AC0E6D1E088819981009711F00E947E
:1002D0007D02229681E0CA36D807A9F70E94FF0066
:1002E00068E873E180E090E00E94AB0BDF91CF9172
:1002F0000895CF92DF92EF92FF920F931F93F4E451
:10030000CF2EF2E0DF2EC60140E056E960E070E05B
:1003100026E00E941908C60169E071E00E94F20A15
:1003200089E090E00E94170B182F092F6EE070E013
:100330004FE050E020E030E00E94D30010935E01D7
:1003400000935F018CE090E06DE270E040E050E0EF
:1003500024E130E002E010E0E0EEEE2EE7E0FE2ED9
:100360000E94D40410926101109260011092630106
:10037000109262011092650110926401109267015F
:1003800010926601109269011092680184E190E078
:100390000E94170BF82EE92E00915E0110915F016B
:1003A0006CE070E04EE250E020E23EE40E94E801A2
:1003B000F0926001E0926101C6016EE071E00E947E
:1003C000F20A1F910F91FF90EF90DF90CF90089568
:1003D0000F931F93FC018EE291E0918380837383DE
:1003E000628355834483358724871782168211865A
:1003F000108613861286138A128A118B008B84E66C
:1004000090E0978786871F910F910895FC018EE2F7
:1004100091E09183808308950F931F938C01FC01D9
:10042000808991890E94A700F801648575858827D5
:1004300077FD8095982F0E94AB0BF80180899189F8
:100440000E948D001F910F9108950F931F93CF93DA
:10045000DF93EC010A811B810E948D0508171907A3
:10046000A1F40C811D810E9485050817190769F404
:100470000E851F850E9475050817190731F00E9427
:1004800075059F878E8781E001C080E0DF91CF9165
:100490001F910F9108950F931F93CF93DF93EC015A
:1004A0000A811B810E948D0508171907F9F40C8138
:1004B0001D810E94850508171907C1F40E811F814F
:1004C0000E9475050817190789F4088519850E9487
:1004D0006D050817190751F40A851B850E946805E8
:1004E00020E00817190719F421E001C020E0822F4D
:1004F000DF91CF911F910F910895CF93DF93EC017E
:100500008A899B89009719F0019769F404C0CE018C
:100510000E94250203C0CE010E944B02882319F0DD
:10052000CE010E940C02DF91CF910895FC018EE272
:1005300091E091838083CF010E94140B08958F92E4
:100540009F92AF92BF92CF92DF92EF92FF920F9362
:100550001F93CF93DF937B018C01EA012CE330E002
:1005600040E050E00E940E0E6883C801B7012CE302
:1005700030E040E050E00E940E0E122F032FF42EC8
:10058000E52E622F732F842F952F2CE330E040E06F
:1005900050E00E940E0E6983612F702F8F2D9E2DCB
:1005A0002CE330E040E050E00E940E0E122F032FAB
:1005B000F42EE52E622F732F842F952F28E130E043
:1005C00040E050E00E940E0E6A83612F702F8F2D45
:1005D0009E2D28E130E040E050E00E940E0E7901AF
:1005E0008A01C801B7016C5F7F4F8F4F9F4F27E093
:1005F00030E040E050E00E940E0E6F5F6B8320E021
:10060000AA24BB24650101C02F5F822E9924F40126
:10061000EE54F84FCF0183709070892B99F4CF017D
:1006200064E670E00E94FB0D892B39F4CF0160E98C
:1006300071E00E94FB0D892B29F48EE691E0A0E089
:10064000B0E004C08DE691E0A0E0B0E0A80EB91ED5
:10065000CA1EDB1EC501A0E0B0E0E816F9060A07D5
:100660001B0790F62E83F401EE54F84F83E0882E9A
:10067000912C8E229F228114910499F4CF0164E67B
:1006800070E00E94FB0D892B39F4CF0160E971E025
:100690000E94FB0D892B29F48EE691E0A0E0B0E0EA
:1006A00004C08DE691E0A0E0B0E0A81AB90ACA0A39
:1006B000DB0A980187010A191B092C093D09CF01A2
:1006C00064E670E00E94FB0D7C01CF0160E971E0FF
:1006D0000E94FB0DAC01E2E3F1E060E0613051F417
:1006E0008114910449F4E114F10441F441155105D8
:1006F00029F002C0808103C08CE101C08DE190E04F
:10070000A0E0B0E0081719072A073B0740F0081BD4
:10071000190B2A0B3B0B6F5F31966C30F9F66F5F4C
:100720006D83802F8F5F8C83DF91CF911F910F910D
:10073000FF90EF90DF90CF90BF90AF909F908F9001
:100740000895EF92FF920F931F937B018C0180918C
:10075000810190918201A0918301B0918401E816FA
:10076000F9060A071B0771F0C801B70146E751E017
:100770000E949F02E0928101F09282010093830126
:10078000109384011F910F91FF90EF9008950E94A4
:10079000A10320917C0130E02E54384FC901089507
:1007A0004F925F926F927F928F929F92AF92BF9281
:1007B000CF92DF92EF92FF920F931F93CF93DF932D
:1007C0004C01DC0116961C91612F70E080E090E0F6
:1007D00020E833E341EE51E00E94DC0D5B016C0147
:1007E00022EB37E0E12FF0E0EE54F84F1DC0C901D5
:1007F00083709070892BB1F4C90164E670E00E94A7
:10080000FB0D892B39F4C90160E971E00E94FB0DF1
:10081000892B41F480E891E5A1E0B0E0A80EB91E73
:10082000CA1EDB1E2F5F3F4F2E173F0701F7D40173
:1008300015968C91482E5524C90164E670E00E94FB
:10084000FB0D7C01C90160E971E00E94FB0D8C0188
:10085000C1E0D0E093E0692E712C6222732227C0A0
:10086000C230D10591F46114710479F4E114F104FA
:1008700019F40115110549F480E89BE3A6E2B0E004
:10088000A80EB91ECA1EDB1E11C0FE01EF5CFE4F92
:10089000608170E080E090E020E831E541E050E0E8
:1008A0000E94DC0DA60EB71EC81ED91E2196C415C7
:1008B000D505B4F2D40112966C9170E080E090E01E
:1008C00020E13EE040E050E00E94DC0D7B018C0125
:1008D000F401618170E080E090E02CE330E040E0E2
:1008E00050E00E94DC0DE60EF71E081F191FD40110
:1008F0008C91E80EF11C011D111D14966C9170E095
:1009000061507040882777FD8095982F20E831E569
:1009100041E050E00E94DC0DE60EF71E081F191F93
:10092000EA0CFB1C0C1D1D1DB701C801DF91CF9106
:100930001F910F91FF90EF90DF90CF90BF90AF90FD
:100940009F908F907F906F905F904F9008956093ED
:100950006C0170936D0180936E0190936F012091F3
:1009600018013091190140911A0150911B01260F75
:10097000371F481F591F2093700130937101409316
:1009800072015093730182E090E09093750180931F
:1009900074010E94620B60937D0170937E018093CD
:1009A0007F01909380010895EF92FF920F93F701DA
:1009B000E436F1051CF0E25BF74001C07E96E0935F
:1009C0007C0100937B0120937A01809378016093EE
:1009D00077014093760186E791E00E94D0030E9460
:1009E000A7040F91FF90EF900895EF92FF920F935D
:1009F0001F931CC02F5F3F4F4F4F5F4F20936C01E1
:100A000030936D0140936E0150936F0188EE93E037
:100A1000A0E0B0E0E80EF91E0A1F1B1FE0927D0166
:100A2000F0927E0100937F01109380010E94620B7F
:100A3000E0907D01F0907E0100917F011091800196
:100A40006E197F09800B910B20916C0130916D0123
:100A500040916E0150916F01685E734080409040FC
:100A600048F68091700190917101A0917201B0914E
:100A70007301281739074A075B07E8F0E0916A011C
:100A8000F0916B013097B9F00995611571058105F9
:100A9000910519F00E94A7040EC020E030E080917B
:100AA000740190917501892B11F021E030E03093B1
:100AB00075012093740160916C0170916D018091BA
:100AC0006E0190916F011F910F91FF90EF9008952B
:100AD0000E94F5040E94C70308950E94F5040E9435
:100AE000A10380917B0190E008950E94F5040E948B
:100AF000A10380917A0190E008950E94F5040E947C
:100B0000A1038091760190E008950E94F5040E946F
:100B1000A1038091770190E008950E94F5040E945E
:100B2000A1038091780190E00895482F613210F080
:100B300081E0089580918501843011F082E008956C
:100B40006093D001AFEAB1E0842F9C01F90102C0AB
:100B500081918D938E2F841B8617D0F380E00895AA
:100B60001F920F920FB60F9211242F933F934F9322
:100B70005F936F937F938F939F93AF93BF93EF9305
:100B8000FF938091B90090E0887F90708036910546
:100B900009F4F2C081369105CCF58832910509F44B
:100BA0007BC089329105B4F48031910509F46FC09E
:100BB000813191053CF4009709F447C1089709F089
:100BC0004FC165C08831910509F466C0809709F06E
:100BD00047C182C08034910509F4A4C081349105D5
:100BE00044F48033910509F482C0C89709F038C1F4
:100BF00089C08035910509F489C08835910509F4CB
:100C000096C08834910509F02BC1AEC08839910592
:100C100009F413C189399105ECF48837910509F479
:100C2000ABC0893791054CF48836910509F4A4C00E
:100C30008037910509F014C19FC08838910509F4E7
:100C4000FCC08039910509F49DC08038910509F0F8
:100C500007C198C0803B910509F4C6C0813B91054E
:100C60004CF4803A910509F49FC0883A910509F047
:100C7000F7C0BAC0803C910509F4E3C0883C9105F7
:100C800009F4DFC0883B910509F0EAC0C2C0809139
:100C900086018093BB00CFC09091AD018091AE01E1
:100CA000981768F49091AD01E92FF0E0E357FE4FFB
:100CB00080818093BB009F5F9093AD01BCC0809109
:100CC0008701882309F44BC085ED8093BC00809197
:100CD000BC0084FDFCCFC2C080E28093F20185EDB0
:100CE0008093BC008091BC0084FDFCCFB7C080E342
:100CF0008093F20185ED8093BC008091BC0084FD5F
:100D0000FCCFACC088E38093F2019BC08091AD0121
:100D10009091BB00E82FF0E0E357FE4F90838F5F88
:100D20008093AD019091AD018091AE0182C0809120
:100D3000AD019091BB00E82FF0E0E357FE4F9083A8
:100D40008F5F8093AD0180918701882341F085ED0D
:100D50008093BC008091BC0084FDFCCF7FC081E00B
:100D60008093880184EA6EC085ED8093BC008091F9
:100D7000BC0084FDFCCF72C083E08093850110929B
:100D8000F10159C08091F101803208F056C0809184
:100D9000F1019091BB00E82FF0E0EF52FE4F9083FD
:100DA0008F5F8093F10147C08091F101803230F470
:100DB000E091F101F0E0EF52FE4F108285ED80935B
:100DC000BC008091BC0084FDFCCF10928501609135
:100DD000F101E0918B01F0918C0181ED91E070E0E7
:100DE00009951092F1012DC084E080938501109245
:100DF000CF011092D001E0918901F0918A0109950B
:100E00008091D001882329F481E08093D001109251
:100E1000AF019091CF01E92FF0E0E155FE4F8081C5
:100E20008093BB009F5F9093CF019091CF01809101
:100E3000D001981710F485EC01C085E88093BC00C0
:100E40000FC085EC8093BC0009C01092F20185EDC3
:100E50008093BC008091BC0084FDFCCF1092850182
:100E6000FF91EF91BF91AF919F918F917F916F9182
:100E70005F914F913F912F910F900FBE0F901F9058
:100E800018952091140230E080911302281B31093B
:100E9000C90108954091130280911402481718F077
:100EA0002FEF3FEF0AC0E42FF0E0ED50FE4F8081BE
:100EB000282F30E04F5F40931302C9010895E0915D
:100EC000130280911402E81718F0EFEFFFEF06C04D
:100ED000F0E0ED50FE4F8081E82FF0E0CF01089563
:100EE000089510923B0210923A0288EE93E0A0E03F
:100EF000B0E080933C0290933D02A0933E02B093F9
:100F00003F0282E491E09093390280933802089581
:100F1000CF92DF92EF92FF920F931F93CF93DF93C5
:100F20007C016B018A01809137028823A1F0C0E027
:100F3000D0E00DC0D701ED91FC91D601AC0FBD1FE3
:100F40000190F081E02DC7016C9109952196C017A1
:100F5000D10780F304C0CB01642F0E949505C8011E
:100F6000DF91CF911F910F91FF90EF90DF90CF9085
:100F70000895DF93CF930F92CDB7DEB7FC0169835D
:100F8000809137028823C9F080913602803238F090
:100F900081E090E09383828320E030E015C080916F
:100FA0003502E82FF0E0EB5EFD4F998190838F5F73
:100FB000809335028093360205C0CE01019661E030
:100FC0000E94950521E030E0C9010F90CF91DF919B
:100FD0000895DC015C968C915C97FD01E80FF11D92
:100FE000E35AFF4F20815C968C915C9790E00196CC
:100FF0008F7390705C968C935C975696ED91FC91F4
:10100000579720835096ED91FC9151978081806491
:1010100080835B969C915B975C968C915C9798170C
:1010200039F45296ED91FC91539780818F7D8083A6
:101030000895DF92EF92FF920F931F93CF93DF9368
:10104000EC017A018B01D22EE889F98982E0808354
:10105000403081EE580780E0680780E07807A1F013
:1010600060E079E08DE390E0A80197010E940E0E08
:101070002150304040405040569547953795279530
:1010800080E12030380798F0E889F989108260E81B
:1010900074E88EE190E0A80197010E940E0E2150A5
:1010A0003040404050405695479537952795EC8500
:1010B000FD853083EE85FF852083188EEC89FD89C0
:1010C000D082EA89FB89808180618083EA89FB89FB
:1010D000808188608083EA89FB8980818068808341
:1010E000EA89FB8980818F7D8083DF91CF911F9179
:1010F0000F91FF90EF90DF900895FC01218D828D7C
:1011000030E0205C3F4F281B31092F733070C9013C
:101110000895FC01918D828D981719F42FEF3FEF00
:1011200006C0828DE80FF11D858D282F30E0C901A2
:101130000895DC0159969C9159975A968C915A972B
:10114000981719F42FEF3FEF10C05A968C915A97C9
:10115000FD01E80FF11D958D5A968C915A978F5F7E
:101160008F735A968C93292F30E0C9010895CF933D
:10117000DF93EC01888D882361F419C08C9185FF81
:101180000AC0E889F989808185FF05C0CE010E94E7
:10119000E907AA89BB898C9185FD05C0E889F98991
:1011A000808186FD04C00FB607FEE8CFF4CFDF9143
:1011B000CF9108950F931F93CF93DF93EC01062FE8
:1011C0009B8D8C8D981791F5E889F989808185FF31
:1011D0002DC0EE89FF896083E889F9898081806468
:1011E00080831DC00FB607FC08C0E889F98980819B
:1011F00085FF03C0CE010E94E9078C8D181791F37B
:101200008B8DFE01E80FF11DE35AFF4F00831B8F0A
:10121000EA89FB8980818062808381E0888F81E018
:1012200090E0DF91CF911F910F9108951B8D1F5F6B
:101230001F73E3CF82EA99E0892B51F080E090E0C0
:10124000892B31F00E94A209882311F00E9400002E
:1012500008951F920F920FB60F9211242F938F9320
:101260009F93EF93FF93E0915402F0915502808198
:1012700082FD16C0E0915A02F0915B0220819091AC
:101280005D029F5F9F7380915E02981771F0E091FD
:101290005D02F0E0EC5BFD4F258F90935D0205C091
:1012A000E0915A02F0915B02E081FF91EF919F91F2
:1012B0008F912F910F900FBE0F901F901895109245
:1012C00047021092460288EE93E0A0E0B0E08093DF
:1012D000480290934902A0934A02B0934B0282E5E0
:1012E00091E0909345028093440285EC90E09093C6
:1012F00051028093500284EC90E0909353028093CB
:10130000520280EC90E0909355028093540281EC5D
:1013100090E0909357028093560282EC90E0909375
:1013200059028093580286EC90E090935B02809380
:101330005A0210925D0210925E0210925F021092A9
:101340006002089584E492E00E947D0820E0892BE9
:1013500009F021E0822F08951F920F920FB60F928D
:1013600011242F933F934F935F936F937F938F93AA
:101370009F93AF93BF93EF93FF9384E492E00E9417
:10138000E907FF91EF91BF91AF919F918F917F916D
:101390006F915F914F913F912F910F900FBE0F90E2
:1013A0001F901895CF92DF92EF92FF920F931F93A9
:1013B000CF93DF937C016B018A01C0E0D0E00FC0C6
:1013C000D6016D916D01D701ED91FC910190F081F5
:1013D000E02DC7010995C80FD91F01501040011514
:1013E000110571F7CE01DF91CF911F910F91FF9001
:1013F000EF90DF90CF900895EF92FF920F931F939D
:101400008C01DC01ED91FC910190F081E02D6DE00B
:1014100009957C01D801ED91FC910190F081E02DBE
:10142000C8016AE009959C012E0D3F1DC9011F915D
:101430000F91FF90EF900895CF93DF93EC0161152A
:10144000710519F420E030E00FC0DB010D900020A1
:10145000E9F71197A61BB70BE881F9810280F381A8
:10146000E02DAD0109959C01C901DF91CF9108954F
:101470004F925F927F928F929F92AF92BF92CF9244
:10148000DF92EF92FF920F931F93DF93CF93CDB72D
:10149000DEB7A1970FB6F894DEBF0FBECDBF2C010B
:1014A000742ECB01223008F42AE019A231E2C32EB7
:1014B000D12CCC0EDD1E822E9924AA24BB24672DAC
:1014C000752FA50194010E940E0E79018A01C801B1
:1014D000B701A50194010E94DC0D472D461B08941D
:1014E000C108D1084A3014F4405D01C0495CF601DE
:1014F0004083E114F1040105110521F07E2C5F2DDC
:10150000C801DDCFC201B6010E941C0AA1960FB628
:10151000F894DEBF0FBECDBFCF91DF911F910F9129
:10152000FF90EF90DF90CF90BF90AF909F908F9003
:101530007F905F904F900895CF92DF92EF92FF924D
:101540000F931F93CF93DF93EC016A017B01211569
:10155000310541F4E881F9810190F081E02D642F9B
:1015600009951FC02A303105D1F477FF17C0E881F3
:10157000F9810190F081E02D6DE209958C014427FD
:101580005527BA014C195D096E097F09CE012AE081
:101590000E94380A9801280F391F04C02AE00E94CF
:1015A000380A9C01C901DF91CF911F910F91FF90E3
:1015B000EF90DF90CF900895EF92FF920F931F93DB
:1015C0007B019A010027F7FC0095102FB801A701B5
:1015D0000E949C0A1F910F91FF90EF9008950E9426
:1015E0001C0A0895EF92FF920F931F937C010E94B3
:1015F0001C0A8C01C7010E94FC09080F191FC801B1
:101600001F910F91FF90EF900895CF93DF930E9469
:10161000700B0E947901CAE1D9E00E94590120971C
:10162000E1F30E941A09F9CF0E94430D08950E9428
:10163000A60C08951F920F920FB60F9211242F93AC
:101640003F938F939F93AF93BF938091E5029091C7
:10165000E602A091E702B091E8023091E90201961A
:10166000A11DB11D232F2D5F2D3720F02D57019681
:10167000A11DB11D2093E9028093E5029093E6023B
:10168000A093E702B093E8028091E1029091E20218
:10169000A091E302B091E4020196A11DB11D8093D7
:1016A000E1029093E202A093E302B093E402BF91BF
:1016B000AF919F918F913F912F910F900FBE0F90FF
:1016C0001F9018958FB7F8942091E5023091E602AB
:1016D0004091E7025091E8028FBFB901CA01089515
:1016E000789484B5826084BD84B5816084BD85B5FD
:1016F000826085BD85B5816085BDEEE6F0E08081C4
:1017000081608083E1E8F0E01082808182608083E4
:10171000808181608083E0E8F0E080818160808367
:10172000E1EBF0E0808184608083E0EBF0E0808199
:1017300081608083EAE7F0E080818460808380813B
:1017400082608083808181608083808180688083E3
:101750001092C1000895EF92FF920F931F93CF93C1
:10176000DF937B018C013FB7F8948091E102909167
:10177000E202A091E302B091E40226B5A89B05C065
:101780002F3F19F00196A11DB11D3FBFBA2FA92F00
:10179000982F8827820F911DA11DB11D52E0880F3F
:1017A000991FAA1FBB1F5A95D1F7EC0130C00E94A8
:1017B000DB0D3FB7F8948091E1029091E202A09195
:1017C000E302B091E40226B5A89B05C02F3F19F0B3
:1017D0000196A11DB11D3FBFBA2FA92F982F8827B1
:1017E000820F911DA11DB11D32E0880F991FAA1F04
:1017F000BB1F3A95D1F78C1B9D0B885E9340B8F2C6
:101800000894E108F10801091109C851DC4FE114FD
:10181000F1040105110559F6DF91CF911F910F9148
:10182000FF90EF900895CF93DF93482F50E0CA01C7
:1018300086569F4FFC0134914A575F4FFA018491BD
:10184000882369F190E0880F991FFC01E859FF4F48
:10185000A591B491FC01EE58FF4FC591D491662338
:1018600051F42FB7F8948C91932F909589238C93F2
:10187000888189230BC0623061F42FB7F8948C9172
:10188000932F909589238C938881832B88832FBFF6
:1018900006C09FB7F8948C91832B8C939FBFDF91E8
:1018A000CF910895482F50E0CA0182559F4FFC0107
:1018B0002491CA0186569F4FFC0194914A575F4F6D
:1018C000FA013491332309F440C0222351F123302B
:1018D00071F0243028F42130A1F0223011F514C029
:1018E0002630B1F02730C1F02430D9F404C0809103
:1018F00080008F7703C0809180008F7D809380006F
:1019000010C084B58F7702C084B58F7D84BD09C0B7
:101910008091B0008F7703C08091B0008F7D80935D
:10192000B000E32FF0E0EE0FFF1FEE58FF4FA59140
:10193000B4912FB7F894662321F48C919095892364
:1019400002C08C91892B8C932FBF08950F931F9306
:10195000CF93DF93BC018230910510F462E070E018
:10196000E091EC02F091ED02A0E0B0E040E050E048
:1019700024C08081918186179707D0F0861797073A
:1019800071F482819381109729F013969C938E9322
:1019900012972CC09093ED028093EC0227C0411562
:1019A000510519F08417950718F4EF018D01AC016A
:1019B000DF01828193819C01F9013097D1F64115B5
:1019C0005105F9F0CA01861B970B8430910580F40C
:1019D0008A819B810115110521F0F801938382838F
:1019E00004C09093ED028093EC02FE01329645C054
:1019F000FE01E80FF91F6193719302979983888321
:101A00003CC08091EA029091EB02892B41F48091D5
:101A10001E0190911F019093EB028093EA02409186
:101A20002001509121014115510541F44DB75EB798
:101A300080911C0190911D01481B590B2091EA02D5
:101A40003091EB0224173507B0F4CA01821B930BC7
:101A50008617970780F0AB014E5F5F4F841795079D
:101A600050F0420F531F5093EB024093EA02F901EA
:101A70006193719302C0E0E0F0E0CF01DF91CF917C
:101A80001F910F910895CF93DF939C01009709F464
:101A90008FC0EC0122971B821A826091EC02709138
:101AA000ED026115710581F488819981820F931F80
:101AB0002091EA023091EB022817390739F5D093CB
:101AC000EB02C093EA0274C0DB0140E050E0AC17C7
:101AD000BD0708F1BB83AA83FE0121913191E20F7A
:101AE000F31FAE17BF0779F48D919C911197280FC2
:101AF000391F2E5F3F4F3983288312968D919C9119
:101B000013979B838A834115510571F4D093ED029D
:101B1000C093EC024DC012968D919C911397AD012C
:101B2000009711F0DC01D3CFDA011396DC93CE934A
:101B30001297FA0121913191E20FF31FCE17DF07BF
:101B400069F488819981280F391F2E5F3F4FFA0170
:101B5000318320838A819B8193838283E0E0F0E05C
:101B6000DB0112968D919C911397009719F0BC019F
:101B7000FD01F6CFAB014E5F5F4FDB018D919C9174
:101B8000840F951F2091EA023091EB022817390744
:101B900079F4309729F41092ED021092EC0202C011
:101BA00013821282425050405093EB024093EA025B
:101BB000DF91CF9108950895629FD001739FF00146
:101BC000829FE00DF11D649FE00DF11D929FF00DCD
:101BD000839FF00D749FF00D659FF00D9927729F04
:101BE000B00DE11DF91F639FB00DE11DF91FBD018F
:101BF000CF011124089597FB092E07260AD077FDFF
:101C000004D02ED006D000201AF4709561957F4F35
:101C10000895F6F7909581959F4F0895A1E21A2EA9
:101C2000AA1BBB1BFD010DC0AA1FBB1FEE1FFF1F80
:101C3000A217B307E407F50720F0A21BB30BE40BD0
:101C4000F50B661F771F881F991F1A9469F7609517
:101C50007095809590959B01AC01BD01CF010895D1
:101C6000AA1BBB1B51E107C0AA1FBB1FA617B707C2
:101C700010F0A61BB70B881F991F5A95A9F78095DE
:101C80009095BC01CD010895EE0FFF1F0590F491D2
:081C9000E02D0994F894FFCF48
:101C98003A0020004C6F6F70006F6B20310046696E
:101CA8006D205365747570002C0100008000EE02F1
:101CB8000000000000009E00C200000000000602B4
:101CC80096021F1C1F1E1F1E1F1F1E1F1E1F000007
:101CD8000000B907880741074A075F077007000037
:0E1CE8000000DA08D2097D0899088908B708BB
:00000001FF
